:020000040800F2
:1000000038AA002059560008F5090008F709000829
:10001000F9090008FB090008FD09000800000000BC
:10002000000000000000000000000000FF090008C0
:10003000010A000800000000030A0008050A000881
:10004000735600087356000873560008735600086C
:100050007356000873560008F34D000873560008E5
:10006000735600087356000873560008735600084C
:10007000735600087356000873560008735600083C
:10008000735600087356000873560008735600082C
:100090007356000873560008735600083B4E00085C
:1000A000735600087356000873560008735600080C
:1000B000735600087356000815750008735600083B
:1000C00073560008735600087356000873560008EC
:1000D00073560008F155000873560008735600085F
:1000E0005D4E0008735600087356000873560008EA
:1000F00073560008735600087356000873560008BC
:1001000073560008735600087356000873560008AB
:10011000735600087356000873560008735600089B
:10012000735600087356000873560008735600088B
:1001300000F002F800F06BF80AA090E8000C82448E
:100140008344AAF10107DA4501D100F060F8AFF26B
:10015000090EBAE80F0013F0010F18BFFB1A43F0A5
:1001600001031847BCF50300DCF503000A444FF017
:10017000000C10F8013B13F0070408BF10F8014B06
:100180001D1108BF10F8015B641E05D010F8016B4B
:10019000641E01F8016BF9D113F0080F1EBF10F8AF
:1001A000014BAD1C0C1B09D16D1E58BF01F801CBD2
:1001B000FAD505E014F8016B01F8016B6D1EF9D555
:1001C0009142D6D37047000000230024002500266A
:1001D000103A28BF78C1FBD8520728BF30C148BFAA
:1001E0000B60704764290EF0A78575290EF0A48571
:1001F00078290EF0DD8563290FF0058073290FF053
:100200000A80002070471FB51FBD10B510BD0FF04C
:100210001DF81146FFF7F7FF00F01AFA0FF03BF850
:1002200003B4FFF7F2FF03BC05F08CF970B50E467E
:1002300092B00146002408A809F0B7FD054640F237
:10024000FF10079006F04BFE0690CDB9C0B10DF13E
:100250000905694608A809F0F1FD88B99DF809006B
:1002600070B10698007808B1069800E0284607F0BB
:1002700022FE00F0F000B042EBD1641CA4B2E8E72B
:1002800012B0204670BD2DE9F34F97B00125102420
:10029000FE491898002730B1012806D0022806D060
:1002A000032805D123E0502602E0302600E0402656
:1002B0008B4603A8179909F078FDE8B1F4A08DE802
:1002C00091001023F022AA213C200BF0ABF8C820AB
:1002D00005F01AF9BBF800000090BA23F022AA2119
:1002E0003C2003F0D9FDC82005F00EF9E1E70EF03F
:1002F0007BFB19B0BDE8F08F31461798FFF796FFEA
:100300005FEA000810D040F2FF10139006F0E7FDFE
:100310001290139806F0E3FD14904FEA480006F09F
:10032000DEFD8246B94628E0DCA08DE8910010236E
:10033000F022AA213C200BF075F840F6B83005F009
:10034000E3F8D6E71021DAA2CDE900210B46CDF87B
:100350000890F022AA213C200BF064F8C82005F098
:10036000D3F8BBF800000090BA23F022AA213C2069
:1003700003F092FDC82005F0C7F812980028E1D0DC
:1003800014980028DED0BAF1000FDBD003A817992B
:1003900009F00BFD0DF139011591B8BB0024BDF832
:1003A00012700CA903A809F049FD78BB9DF839002B
:1003B00060B31298007808B1129800E01598009088
:1003C0000EF00AFE172809D900980BF08FF90146A4
:1003D000BB48C4EB041200EB420005E0B848C4EB94
:1003E000041100EB410000990EF0D2FD092D01D25D
:1003F0006D1CEDB2009807F05EFD00F0F000B04219
:10040000CDD12AF81470641CA4B2C8E7FFE7002419
:1004100003A8179909F0C9FC002500287BD108F131
:100420000100DFF8A0B216909848008801F0BEF9EC
:100430001021179ACDE900210B46CDF80890F02243
:1004400005210A200AF0EEFF16980127092805D990
:1004500008F0FF01092228460CF04EFE2E4646E029
:10046000B44229D189480188974801809748BBF850
:10047000001001809648007898B9914AC6EB06139F
:1004800002EB43021021CDE90021C7EB07110A203E
:1004900000EB4101CDF808901023F02214200AF05F
:1004A000C1FF8948BBF800107F1C01807748FFB26C
:1004B00001888648018018E08548007898B9804A0C
:1004C000C6EB061302EB43021021CDE90021C7EB76
:1004D00007110A2000EB4101CDF808901023F0220B
:1004E00014200AF09FFF7F1CFFB2761CF6B246452F
:1004F00003D205F109008642B2D375480178042978
:100500000AD0017802290CD0017803290DD0017896
:1005100001290FD010E091E06E4903220A700121F9
:1005200009E06C4A0121117002E06A4902220A7056
:10053000042100E049460170664E307802280CD054
:100540003078012819D0307803282AD0307805284F
:100550006DD00A2004F0D8FFEFE7AC4202D80DB10D
:100560006D1EEDB20CB1641E16E0A8F1010084B25C
:100570000838C5B286F8009059E005F108008442B9
:1005800005D3A8F10900854201DA6D1CEDB2A8F18E
:100590000100844202DA641CA4B2EBE70024254681
:1005A000E8E786F800903AF8141003A808F095FAE6
:1005B0000CA903A809F042FCC8BB9DF83900B0B3F0
:1005C0001298007808B1129F00E0159F17991498AF
:1005D0000EF0DEFC40A114980EF01DFD3946149873
:1005E0000EF019FD294F388801F0E0F8189802281C
:1005F0000BD1388801F0DAF83348BBF800100180DD
:10060000601C80B241460DF0B7FC3448012241889D
:10061000CDE9001203880022114614980CF015FC55
:100620002948BBF8001001802848398801803078BB
:1006300005287FF4F9AE274981F80090129806F05A
:1006400047FC149806F044FC504606F041FC50E686
:100650000EB504F02BFF4FF4A06005F03FFC4FF403
:10066000165004F079FF01F0BFF800F079FA04F0B9
:1006700017FC04F061FB1A4841684820884706F0DF
:10068000B9FB07F0E7FB174C01222DE01C0000200E
:10069000CEC4BCFEBCD0B4EDCEF32100C3BBD3D0DE
:1006A000B7A2CFD6B8C3C0E0D0CDCEC4BCFE210027
:1006B000C4DAB4E6B7D6C5E4CAA7B0DC21000000AE
:1006C000C80300201800002014000020160000209D
:1006D000C1030020220000202F000000280D002070
:1006E000480100204802002096A1206808F0C8FFB9
:1006F000012295A1606808F0C3FF94481026954D2B
:1007000001889348018016E093A0CDE90060102392
:10071000C82232213C2003F0C4FDC82004F0F4FEBE
:10072000288800904223F02232213C2003F0B4FBC1
:10073000C82004F0E9FE0AF096FD0028E4D104F098
:100740007EFC04F058FC04F01BFC8649C8200870AD
:100750000CF093FA0024288801F028F8DFF808B29A
:10076000DFF80882B146A24681A28DE80406102374
:10077000F022142164200AF055FE9BF800000028A6
:100780007BD134B1012C0AD0022C0ED0032C14D012
:100790001CE02888A02378226E2100900BE0288896
:1007A000A023F0226E2100900DE0288878224FF4DB
:1007B000A073F02100903C2006E02888F0224FF43E
:1007C000A07311460090A02003F066FB5F4E604FBF
:1007D0006AA2308838802988A8F800108DE80406BD
:1007E0001023F0226E213C200AF01CFE65A28DE849
:1007F00004061023F0226E21A0200AF013FE63A24B
:100800008DE80406F022102311463C200AF00AFE6F
:1008100060A28DE80406F02210231146A0200AF001
:1008200001FE002C4BD0012C57D03846298801807E
:100830003088022C4746A8F800005CD055A28DE80D
:1008400004061023F0221146A0200AF0EBFD4048D8
:10085000318801802888388004218BF800102827EF
:100860000126CDE900763C223B4611464BA00CF018
:10087000AAFA28233C22A02100E014E0CDE900766A
:100880004BA00CF0A0FACDE900762823B4223C213D
:100890004CA00CF098FACDE900762823B422A021D0
:1008A0004DA00CF090FA9BF80010584602292AD06F
:1008B000017801292AD0017803292ED03DE024486F
:1008C00029882EA201803088A8F800008DE804064F
:1008D0001023F02247466E2113E01D48298829A2E3
:1008E00001803088A8F800008DE804061023F0226B
:1008F00047466E21A8E725A28DE804061023F022C2
:1009000011463C20A1E72CB1641E02E0032C01D269
:10091000641CE4B280F800A00FE080F800A021463B
:1009200032A0FFF7B0FC288800F040FF074801889C
:10093000074801802988A8F800100A2004F0E4FD87
:1009400012E70000303A0000313A000018000020A1
:10095000140000201C000020466F6E742045727247
:100960006F722100230000202200002016000020CA
:10097000D1A1CFEEB2CBB5A500000000CDBCC6AC76
:1009800000000000D0A1CBB500000000D2F4C0D61A
:1009900000000000C9E8D6C300000000303A2F5024
:1009A0004943545552452F706963312E6A70670070
:1009B000303A2F504943545552452F747874312E94
:1009C0006A706700303A2F504943545552452F6D95
:1009D0007573312E6A706700303A2F504943545571
:1009E00052452F737973312E6A706700303A2F5455
:1009F000657374007047FEE7FEE7FEE7FEE77047A9
:100A000070477047704700000CB500224C480092B8
:100A10000192016841F4803101604FF4A0630168E4
:100A200001F4003101910099491C0091019911B91B
:100A300000999942F3D10168890333D501210191CD
:100A400040490A6842F010020A600A6822F0030274
:100A50000A600A6842F002020A6041684160416827
:100A60004160416841F480614160416821F47C113A
:100A70004160416841F4E8114160016841F08071D2
:100A8000016001688901FCD5416821F003014160E2
:100A9000416841F0020141604168C1F381010229CE
:100AA000FAD10CBD01920CBD254810B5016841F08A
:100AB000010101604168244A114041600168234AF4
:100AC00011400160016821F480210160416821F436
:100AD000FE0141604FF41F018160FFF795FF1C4943
:100AE0004FF00060086010BD154A10B55068194BF2
:100AF00010F00C01184803D0042901D0082901D0B6
:100B0000036012E05168536801F470114FF0020461
:100B100013F4803F04EB914102D053689B0301D54D
:100B20000E4B00E00B4B5943016051680A4AC1F378
:100B30000311121D515C0268CA40026010BD000022
:100B400000100240002002400000FFF8FFFFF6FE08
:100B500008ED00E000127A000000002000093D00CE
:100B600038B50121242004F0D6FF4FF48074ADF88D
:100B7000004010208DF8030003200C4D8DF802007A
:100B80006946284604F0DFFD2146284604F045FE6C
:100B90000420074CADF800006946204604F0D3FD60
:100BA0000421204604F039FE38BD00000008014051
:100BB000001401404FF48072F7494A614A154A61B6
:100BC000F64B18608020486108610A617047F2495D
:100BD0004FF480720A614A154A61F04B1860802018
:100BE000486108610A617047401EC0B2FCD270477C
:100BF000F0B5EA4B4FF088300C3B18601C1D2060AC
:100C0000E64D00202860E44A9815106146005661C0
:100C1000402757610220401EC0B2FCD2DF48001FAF
:100C20000068176180B216614FF03331196021609E
:100C30004FF6FF712960F0BD10B50C46FFF7BAFF03
:100C4000D5484FF48071016142154261D3490C606F
:100C5000802141610161026110BD00B5FFF7AAFF6B
:100C60005DF804EBC4E7CE480089A3E7CA494FF416
:100C700080720A614A154A61C84B18608020486139
:100C800008610A617047C0F34511C20AC00200EB57
:100C90004110104480B270472DE9F04FC04B4FEA2D
:100CA0001129CCB29A881946060ABB4FDFF8ECA28C
:100CB0004989A2F5C858C5B24FF4807C4FF4007B37
:100CC000B8F1630837D0A2F5AA40103808467DD0A5
:100CD000FFF770FFE046C7F810C0DC46C7F814B055
:100CE000CAF8006080267E613E61C7F810B0C7F880
:100CF0001080C7F814B0CAF800507E613E61C7F892
:100D000010B0A7488089FFF755FFC7F81080C7F8D3
:100D100014C0CAF800907E613E61C7F810C0C7F8E1
:100D20001080C7F814C0504604607E613E61C7F869
:100D300010C0BDE8F08F9A799846002A5FD0084627
:100D4000FFF738FFC7F810C05846C7F814B053462D
:100D5000CAF80060802179613961C7F810B0C7F81E
:100D600010C0C7F814B0CAF8005079613961C7F8EB
:100D700010B0C7F810C0C7F814B0B8F80020521E61
:100D800015121D60796139613861C7F810C078614A
:100D9000D2B21A607961396138614546B8F80C0001
:100DA000FFF708FFC7F810C05846C7F814B05346FD
:100DB000CAF80090802179613961C7F810B0C7F88E
:100DC00010C0C7F814B0CAF8004000E047E07961ED
:100DD0003961C7F810B0C7F810C0C7F814B06A88F6
:100DE000521E14121C60796139613861C7F810C055
:100DF0007861D2B21A6079613961386199E7B8F8DF
:100E00000020101A401E85B20846FFF7D3FEC7F82F
:100E100010C05846C7F814B000235246CAF8003034
:100E2000802179613961C7F810B0C7F810C0C7F8E0
:100E300014B0CAF8003079613961C7F810B0C7F84A
:100E400010C0C7F814B02B0ACAF8003079613961B4
:100E50003861C7F810C07861EBB213609AE7FFF70A
:100E6000A9FEE046C7F810C0DC46C7F814B0CAF8BF
:100E7000006080267E613E61C7F810B04848408916
:100E8000401C80B2FFF796FEC7F81080C7F814C068
:100E9000CAF800507E613E61C7F810C040488089A2
:100EA000FFF788FEC7F81080C7F814C0CAF8009092
:100EB0007E613E61C7F810C039488089401C80B20D
:100EC000FFF778FEC7F81080C7F814C050462BE72C
:100ED00010B5334C2288824202D962888A4201D8F6
:100EE000002010BDFFF7D8FEA088A0F5AA41103958
:100EF0001BD02E20FFF75EFEFFF77AFEA188A1F53A
:100F0000C852633AEDD0FFF773FE0446FFF770FE58
:100F1000E1B24FF6FF7202EA012124EA6212890A65
:100F200042EA411141EAD02010BD4FF43850E1E7C8
:100F30001B488088A0F5AA41103901D0292039E644
:100F40004FF42450FBE716488088A0F5AA411039D9
:100F500001D028202EE64FF42050FBE72DE9F04F7A
:100F60000F4C00252146A279898841F66316012A93
:100F700001D01AB121E0B14202D11EE0B1421CD130
:100F800008281AD2DFE800F004060E101214161812
:100F9000062012E0072010E0001001400C0C014078
:100FA000280D0020042008E0052006E0012004E0D0
:100FB000002002E0032000E00220082812D2DFE82F
:100FC00000F0110406080A0C0E1080250AE04025E6
:100FD00008E0C02506E0202504E0602502E0A02509
:100FE00000E0E02545F21058414502D14FF4585039
:100FF00000E03620A1F51342413A03D0A1F5EE42BC
:10100000893A01D145F008052946FFF715FEA08869
:10101000B0420AD0A9062188628802D5914202D343
:1010200003E0914201D9228061804FF0000C4FF023
:10103000800A4FF48077FE4DDFF8F8B36E15404517
:101040007BD16089FFF7B6FD2F616E61E146D8461E
:10105000CBF800C0D446C5F814A0C5F810A02E6186
:101060006089401C80B2FFF7A5FD2F616E61C8F852
:101070000090C5F814C0C5F810C02E616089801CAE
:1010800080B2FFF797FD2F616E612088401E01122C
:10109000C8F80010C5F814C0C5F810C02E616089EA
:1010A000C01C80B2FFF786FD2F616E612078401E64
:1010B000C1B2C8F80010C5F814C0C5F810C02E6140
:1010C000A089FFF777FD2F616E61C8F80090C5F821
:1010D00014C0C5F810C02E61A089401C80B2FFF773
:1010E00069FD2F616E61C8F80090C5F814C0C5F89D
:1010F00010C02E61A089801C80B2FFF75BFD2F61BC
:101100006E616088401E0112C8F80010C5F814C056
:10111000C5F810C02E61A089C01C80B2FFF74AFD3F
:101120002F616E61A078401EC1B2C8F80010C5F8EA
:1011300014C0C5F810C052E0FFE7A0466089FFF771
:1011400039FD2F616E616046E146DC46CBF8000058
:101150005446C5F814A0C5F810A02E612F616E6129
:10116000CBF80090C5F814A0C5F810A02E612F612F
:101170006E61B8F80000401E0112CCF80010C5F8EE
:1011800014A02C612E612F616E61C0B2CCF80000FA
:101190006C612C612E61B8F80C00FFF70BFD2F611C
:1011A0006E61CCF800906C612C612E612F616E61D4
:1011B000CCF800906C612C612E612F616E61B8F8E3
:1011C0000200401E0112CCF800106C612C612E61EF
:1011D0002F616E61C0B2CCF800006C612C612E6191
:1011E000A7E500B5FFF758FDFFF73DFD90484FF428
:1011F00080710161411541618F4A8E4B12881A60DE
:10120000802242610261016100BD2DE9F74FDFF8E4
:101210002CB2074600F0FF0A4FEA102CBBF804205E
:101220005846834C80260D0A4089A2F5AA4301F056
:10123000FF09103B42D0A2F5C8535946633B6CD01E
:10124000FFF7B8FCA015206147006761DFF8E48173
:10125000C8F800C066612661276120616761C8F82F
:1012600000A0666126612761BBF80C00FFF7A2FCB5
:10127000A01520616761C8F800506661266127618A
:101280004FF4807020616761C8F800906661266144
:1012900027614FF48071616148006061654ABBF865
:1012A00008301360666126612061216160610299E6
:1012B0001160666126612061BDE8FE8FFFF77AFC50
:1012C0004FF48070206147006761DFF86881C8F8DB
:1012D00000C0666126612761BBF80A00401C80B22D
:1012E000FFF768FC781020616761C8F800A06661AC
:1012F00026612761BBF80C00FFF75CFC78102061C9
:101300006761C8F80050666126612761BBF80C0070
:10131000401C80B2FFF74EFCB2E78A791AB90A88FE
:10132000D21B521E97B2FFF745FC4FF48078C4F8E9
:1013300010804FF4007CC4F814C0DFF8F8A0380A1D
:10134000CAF8000066612661C4F810C0C4F81080B5
:10135000C4F814C0F9B2CAF8001066612661C4F876
:1013600010C0C4F81080C4F814C0CAF80000666148
:101370002661C4F810C0C4F81080C4F814C0CAF8BC
:10138000001066612661C4F810C0BBF80C00FFF7BE
:1013900011FCC4F81080C4F814C0CAF8005066618B
:1013A0002661C4F810C0C4F81080C4F814C0CAF88C
:1013B000009066612661C4F810C0C4F81080C4F8BB
:1013C00014C0CAF8005066612661C4F810C0C4F8A1
:1013D0001080C4F814C0CAF8009066612661C4F891
:1013E00010C056E72DE9F0418446BE20FFF7E2FB2E
:1013F0000F4C4FF48077276165156561DFF8348005
:101400000521C8F8001080266661266125612761E4
:10141000656160460EF0D9F84FF06632084B0EF069
:10142000E7F80EF0A5F8C8F800006661266109E04B
:10143000001001400C0C014014000020280D002079
:10144000666604402561276165610121C8F80010C6
:1014500066612661256127616561FF21C8F800107A
:10146000666126612561276165610020C8F800007A
:1014700066612661256127616561C8F800006661C3
:1014800026612561BDE8F0812DE9F04FFE4B2C2748
:10149000194698712B2589884FF4305A4FF4285BF0
:1014A0004FF4487441F6631E2A264FF0F00845F2C7
:1014B00010594FF4A07C4FF4F072C0B1A3F800C0F3
:1014C000A3F80280494532D1A3F808A0A3F80AB0D6
:1014D000280298811C805A80A1F5A640103802D1BC
:1014E0001A80A3F802C0BDE8F04F002036E5A3F84B
:1014F0000080A3F802C0494507D1A3F808A0A3F8CB
:101500000AB04FF42C50988104E071451F8104D13A
:101510005D819E811A805C8001E05E819D81A1F5E4
:10152000A6401038DFD1A3F800C05A80DBE71F8146
:101530005E8171459D81CDD0CEE72DE9FF4FD24C24
:101540009E46D24DA388224601EB0E086E155289A5
:10155000A3F5C85C84B04FF480774FEA112B01F0FB
:10156000FF0AA8F10108BCF1630C59D194F806C038
:10157000BCF1010F54D021461FFA88F80B88069958
:10158000591A081A1FFA80F91046FFF713FB2F614A
:101590006E61DFF8FCC24FEA1920CCF8000080240D
:1015A0006C612C612E612F616E6109F0FF00CCF837
:1015B00000006C612C612E612F616E61069909EB50
:1015C0000100401E0112CCF800106C612C612E61EC
:1015D0002F616E61C0B2CCF800006C612C612E618D
:1015E000A9488089FFF7E6FA2F616E61CCF800B058
:1015F0006C612C612E612F616E61CCF800A06C6172
:101600002C612E612F616E614FEA1820CCF800002A
:101610006C612C612E612F616E6108F0FF005CE04F
:10162000DDF81880040A00F0FF094044401E80B233
:101630004FEA1028C0B2CDE9020801EB0E00401EAF
:1016400080B2010AC0B2A3F5A04CCDE90001DFF8D9
:101650003882BCF5A26C104646D0FFF7ABFA2F617A
:101660006E61DFF82CC2CCF8004080246C612C61E4
:101670002E612F616E61CCF800906C612C612E613F
:101680002F616E610398CCF800006C612C612E61B3
:101690002F616E610298CCF800006C612C612E61A4
:1016A000B8F80C00FFF786FA2F616E61CCF800B035
:1016B0006C612C612E612F616E61CCF800A06C61B1
:1016C0002C612E612F616E610198CCF800006C6175
:1016D0002C612E612F616E610098CCF800006C6166
:1016E0002C612E6108B07BE5FFF764FA2F616E6113
:1016F000DFF89CC1CCF8004080246C612C612E6125
:10170000B8F80A00401C80B2FFF754FA2F616E61EE
:10171000CCF800906C612C612E61B8F80A00801C36
:1017200080B2FFF747FA2F616E610398CCF8000092
:101730006C612C612E61B8F80A00C01C80B2FFF702
:1017400039FA2F616E610298CCF800006C612C614F
:101750002E61B8F80C00FFF72DFA2F616E61CCF8FE
:1017600000B06C612C612E61B8F80C00401C80B296
:10177000FFF720FA2F616E61CCF800A06C612C613C
:101780002E61B8F80C00801C80B2FFF713FA2F61AD
:101790006E610198CCF800006C612C612E61B8F884
:1017A0000C00C01C80B2FFF705FA93E7F0B536498C
:1017B0000646002408884D88214645432046FFF709
:1017C0006BFAFFF750FA31494FF480774B15304AE6
:1017D000802006E00F614B611660486108610B6173
:1017E000641CAC42F6D3F0BD2DE9F84F012119205D
:1017F00004F091F90121274804F030F84FF4F86023
:10180000ADF8000010208DF8030003208DF80200D1
:1018100069461E4803F097FF4FF4F8611B4803F038
:10182000FCFF1B4C4FF6FF7B0C3CADF800B069464B
:10183000204603F088FF5946204603F0EEFF322091
:1018400003F062FE01210020FFF7F6F9322003F0D9
:101850005BFED320FFF7AEF9FFF7CAF90A4CA08070
:10186000FFF7C6F9A080FFF7C3F9594601EA002047
:10187000A080FFF7BDF9A18849F241380843A08054
:1018800047F2897508E00000280D00200010014093
:101890000C0C01400002300045F2103745F210599F
:1018A00041F6631A404578D00420FFF783F9FFF72B
:1018B0009FF9A080FFF79CF9A080FFF799F90BEA48
:1018C00000205E46A080FFF793F9A1880843A0F5A9
:1018D0000541A08052395CD0A8425ED0D420FFF7E9
:1018E00069F9FFF785F9A080FFF782F9A080FFF77B
:1018F0007FF906EA0020A080FFF77AF9A188084363
:10190000A080B84249D055214FF47040FFF794F9B8
:10191000AA214FF20100FFF78FF952214FF2020086
:10192000FFF78AF908214FF20300FFF785F901213B
:101930004FF20400FFF780F94FF44540FFF73AF902
:10194000FFF756F906EA0020A0804CF20150FFF79D
:1019500031F9FFF74DF9A1880843A080052003F075
:10196000D3FDA188494518D0A120FFF723F9FFF73F
:101970003FF9A080FFF73CF906EA0020A080FFF7BE
:1019800037F9A1880843A0F5AE41A080613902D0A3
:1019900003E0A58001E0A4F804A0A188F7A00DF061
:1019A0005BF9A08840457CD1CF20FFF703F90020E8
:1019B000FFF70DF9C120FFF70AF93020FFF707F90B
:1019C000ED20FFF7F7F86420FFF701F90320FFF798
:1019D000FEF81220FFF7FBF88120FFF7F8F8E82067
:1019E000FFF7E8F88520FFF7F2F81020FFF7EFF88F
:1019F0007A20FFF7ECF8CB20FFF7DCF83920FFF76F
:101A0000E6F82C20FFF7E3F80020FFF7E0F8342099
:101A1000FFF7DDF80220FFF7DAF8F720FFF7CAF842
:101A20002020FFF7D4F8EA20FFF7C4F80020FFF7E2
:101A3000CEF80020FFF7CBF8C020FFF7BBF81B2043
:101A4000FFF7C5F8C120FFF7B5F80120FFF7BFF891
:101A5000C520FFF7AFF83020FFF7B9F83020FFF7C7
:101A6000B6F8C720FFF7A6F8B720FFF7B0F8362082
:101A7000FFF7A0F84820FFF7AAF83A20FFF79AF8F6
:101A80005520FFF7A4F8B120FFF794F80020FFF7E6
:101A90009EF81A20FFF79BF8B620FFF78BF80A2074
:101AA00000E095E0FFF793F8A220FFF790F8F2200E
:101AB000FFF780F80020FFF78AF82620FFF77AF872
:101AC0000120FFF784F8E020FFF774F80F20FFF7FC
:101AD0007EF82A20FFF77BF82820FFF778F8082007
:101AE000FFF775F80E20FFF772F80820FFF76FF880
:101AF0005420FFF76CF8A920FFF769F84320FFF79F
:101B000066F80A20FFF763F80F20FFF760F800205F
:101B1000FFF75DF80020FFF75AF80020FFF757F8AD
:101B20000020FFF754F8E120FFF744F80020FFF70A
:101B30004EF81520FFF74BF81720FFF748F807205D
:101B4000FFF745F81120FFF742F80620FFF73FF8AE
:101B50002B20FFF73CF85620FFF739F83C20FFF721
:101B600036F80520FFF733F81020FFF730F80F2084
:101B7000FFF72DF83F20FFF72AF83F20FFF727F85F
:101B80000F20FFF724F82B20FFF714F80020FFF7B1
:101B90001EF80020FFF71BF80120FFF718F83F2080
:101BA000FFF715F82A20FFF705F80020FFF70FF8D8
:101BB0000020FFF70CF80020FFF709F8EF20FFF7EF
:101BC00006F81120FEF7F6FF782003F09DFCD2E026
:101BD000A8427CD11120FEF7EDFF782003F094FCA1
:101BE0003620FEF7E7FF0020FEF7F1FF3A20FEF770
:101BF000E1FF0520FEF7EBFFB220FEF7DBFF0C2034
:101C0000FEF7E5FF0C20FEF7E2FF0020FEF7DFFF06
:101C10003320FEF7DCFF3320FEF7D9FFB720FEF7B5
:101C2000C9FF3520FEF7D3FFBB20FEF7C3FF3220EC
:101C3000FEF7CDFFC020FEF7BDFF0C20FEF7C7FF6B
:101C4000C220FEF7B7FF0120FEF7C1FFC320FEF759
:101C5000B1FF1020FEF7BBFFC420FEF7ABFF202032
:101C6000FEF7B5FFC620FEF7A5FF0F20FEF7AFFF7A
:101C7000D020FEF79FFFA420FEF7A9FFA120FEF7CA
:101C8000A6FFE020FEF796FFD020FEF7A0FF002081
:101C9000FEF79DFF0220FEF79AFF0720FEF797FF51
:101CA0000A20FEF794FF2820FEF791FF3220FEF76E
:101CB0008EFF4420FEF78BFF4220FEF788FF0620B0
:101CC000FEF785FF0E20FEF782FF122000E05DE0A8
:101CD000FEF77DFF1420FEF77AFF1720FEF777FF4F
:101CE000E120FEF767FFD020FEF771FF0020FEF72E
:101CF0006EFF0220FEF76BFF0720FEF768FF0A2049
:101D0000FEF765FF2820FEF762FF3120FEF75FFF38
:101D10005420FEF75CFF4720FEF759FF0E20FEF728
:101D200056FF1C20FEF753FF1720FEF750FF1B2025
:101D3000FEF74DFF1E20FEF74AFF2A20FEF73AFF6E
:101D40000020FEF744FF0020FEF741FF0020FEF7D1
:101D50003EFFEF20FEF73BFF2B20FEF72BFF00207E
:101D6000FEF735FF0020FEF732FF0120FEF72FFFC0
:101D70003F20FEF72CFF292001F003BF204C4344F5
:101D80002049443A25780D0A00000000B8427CD171
:101D9000ED20FEF70FFF0120FEF719FFFE20FEF7F2
:101DA00016FFEE20FEF706FFDE20FEF710FF2120D3
:101DB000FEF70DFFF120FEF7FDFE0120FEF707FF05
:101DC000DF20FEF7F7FE1020FEF701FFC420FEF72C
:101DD000F1FE8F20FEF7FBFEC620FEF7EBFE002093
:101DE000FEF7F5FEE220FEF7F2FEE220FEF7EFFE40
:101DF000E220FEF7ECFEBF20FEF7DCFEAA20FEF795
:101E0000E6FEB020FEF7D6FE0D20FEF7E0FE002035
:101E1000FEF7DDFE0D20FEF7DAFE0020FEF7D7FE0E
:101E20001120FEF7D4FE0020FEF7D1FE1920FEF7A8
:101E3000CEFE0020FEF7CBFE2120FEF7C8FE0020DC
:101E4000FEF7C5FE2D20FEF7C2FE0020FEF7BFFE06
:101E50003D20FEF7BCFE0020FEF7B9FE5D20FEF738
:101E6000B6FE0020FEF7B3FE5D20FEF7B0FE0020B8
:101E7000FEF7ADFEB120FEF79DFE8020FEF7A7FE27
:101E80000020FEF7A4FE8B2000E0FCE3FEF79FFE9F
:101E90000020FEF79CFE9620FEF799FE0020FEF73C
:101EA00096FEB220FEF786FE0020FEF790FE002090
:101EB000FEF78DFE0220FEF78AFE0020FEF787FE69
:101EC0000320FEF784FE0020FEF781FEB320FEF71C
:101ED00071FE0020FEF77BFE0020FEF778FE00205A
:101EE000FEF775FE0020FEF772FE0020FEF76FFE83
:101EF0000020FEF76CFE0020FEF769FE0020FEF7D2
:101F000066FE0020FEF763FE0020FEF760FE002064
:101F1000FEF75DFE0020FEF75AFE0020FEF757FE9A
:101F20000020FEF754FE0020FEF751FE0020FEF7D1
:101F30004EFE0020FEF74BFE0020FEF748FE00207C
:101F4000FEF745FE0020FEF742FE0020FEF73FFEB2
:101F50000020FEF73CFE0020FEF739FE0020FEF7D1
:101F600036FEB420FEF726FE8B20FEF730FE002062
:101F7000FEF72DFE9620FEF72AFE0020FEF727FE34
:101F8000A120FEF724FE0020FEF721FEB520FEF77B
:101F900011FE0220FEF71BFE0020FEF718FE0320B4
:101FA000FEF715FE0020FEF712FE0420FEF70FFEDE
:101FB0000020FEF70CFEB620FEF7FCFD0020FEF729
:101FC00006FE0020FEF703FEB720FEF7F3FD00201B
:101FD000FEF7FDFD0020FEF7FAFD3F20FEF7F7FDBE
:101FE0000020FEF7F4FD5E20FEF7F1FD0020FEF775
:101FF000EEFD6420FEF7EBFD0020FEF7E8FD8C20EF
:10200000FEF7E5FD0020FEF7E2FDAC20FEF7DFFD68
:102010000020FEF7DCFDDC20FEF7D9FD0020FEF7F6
:10202000D6FD7020FEF7D3FD0020FEF7D0FD9020F6
:10203000FEF7CDFD0020FEF7CAFDEB20FEF7C7FD41
:102040000020FEF7C4FDDC20FEF7C1FD0020FEF7F6
:10205000BEFDB820FEF7AEFD0020FEF7B8FD002063
:10206000FEF7B5FD0020FEF7B2FD0020FEF7AFFD44
:102070000020FEF7ACFD0020FEF7A9FD0020FEF7D2
:10208000A6FD0020FEF7A3FDBA20FEF793FD242055
:10209000FEF79DFD0020FEF79AFD0020FEF797FD5C
:1020A0000020FEF794FDC120FEF784FD2020FEF7FE
:1020B0008EFD0020FEF78BFD5420FEF788FD0020EA
:1020C000FEF785FDFF20FEF782FD0020FEF77FFD75
:1020D000C220FEF76FFD0A20FEF779FD0020FEF713
:1020E00076FD0420FEF773FD0020FEF770FDC3208F
:1020F000FEF760FD3C20FEF76AFD0020FEF767FD5D
:102100003A20FEF764FD0020FEF761FD3920FEF75E
:102110005EFD0020FEF75BFD3720FEF758FD002036
:10212000FEF755FD3C20FEF752FD0020FEF74FFD67
:102130003620FEF74CFD0020FEF749FD3220FEF769
:1021400046FD0020FEF743FD2F20FEF740FD002056
:10215000FEF73DFD2C20FEF73AFD0020FEF737FD8F
:102160002920FEF734FD0020FEF731FD2620FEF782
:102170002EFD0020FEF72BFD2420FEF728FD002079
:10218000FEF725FD2420FEF722FD0020FEF71FFDAF
:102190002320FEF71CFD0020FEF719FD3C20FEF772
:1021A00016FD0020FEF713FD3620FEF710FD00207F
:1021B000FEF70DFD3220FEF70AFD0020FEF707FDB9
:1021C0002F20FEF704FD0020FEF701FD2C20FEF776
:1021D000FEFC0020FEF7FBFC2920FEF7F8FC0020A7
:1021E000FEF7F5FC2620FEF7F2FC0020FEF7EFFCE0
:1021F0002420FEF7ECFC0020FEF7E9FC2420FEF78B
:10220000E6FC0020FEF7E3FC2320FEF7E0FC0020C4
:10221000FEF7DDFCC420FEF7CDFC6220FEF7D7FC04
:102220000020FEF7D4FC0520FEF7D1FC0020FEF7CD
:10223000CEFC8420FEF7CBFC0020FEF7C8FCF0208B
:10224000FEF7C5FC0020FEF7C2FC1820FEF7BFFC1D
:102250000020FEF7BCFCA420FEF7B9FC0020FEF72E
:10226000B6FC1820FEF7B3FC0020FEF7B0FC5020AF
:10227000FEF7ADFC0020FEF7AAFC0C20FEF7A7FC41
:102280000020FEF7A4FC1720FEF7A1FC0020FEF7BB
:102290009EFC9520FEF79BFC0020FEF798FCF320A7
:1022A000FEF795FC0020FEF792FCE620FEF78FFC7F
:1022B0000020FEF78CFCC520FEF77CFC3220FEF7E8
:1022C00086FC0020FEF783FC4420FEF780FC002003
:1022D000FEF77DFC6520FEF77AFC0020FEF777FC18
:1022E0007620FEF774FC0020FEF771FC8820FEF7D4
:1022F0006EFC0020FEF76BFCC620FEF75BFC202086
:10230000FEF765FC0020FEF762FC1720FEF75FFC7D
:102310000020FEF75CFC0120FEF759FC0020FEF7D0
:1023200056FCC720FEF746FC0020FEF750FC0020BC
:10233000FEF74DFC0020FEF74AFC0020FEF747FCAC
:10234000C820FEF737FC0020FEF741FC0020FEF716
:102350003EFC0020FEF73BFC0020FEF738FCC920C5
:10236000FEF728FC0020FEF732FC0020FEF72FFCD1
:102370000020FEF72CFC0020FEF729FC0020FEF7D1
:1023800026FC0020FEF723FC0020FEF720FC0020A6
:10239000FEF71DFC0020FEF71AFC0020FEF717FCDC
:1023A0000020FEF714FC0020FEF711FC0020FEF7D1
:1023B0000EFC0020FEF70BFC0020FEF708FC0020BE
:1023C000FEF705FCE020FEF7F5FB1620FEF7FFFB0D
:1023D0000020FEF7FCFB1C20FEF7F9FB0020FEF7B7
:1023E000F6FB2120FEF7F3FB0020FEF7F0FB362082
:1023F000FEF7EDFB0020FEF7EAFB4620FEF7E7FBC9
:102400000020FEF7E4FB5220FEF7E1FB0020FEF780
:10241000DEFB6420FEF7DBFB0020FEF7D8FB7A2012
:10242000FEF7D5FB0020FEF7D2FB8B20FEF7CFFB9B
:102430000020FEF7CCFB9920FEF7C9FB0020FEF739
:10244000C6FBA820FEF7C3FB0020FEF7C0FBB920A7
:10245000FEF7BDFB0020FEF7BAFBC420FEF7B7FB7A
:102460000020FEF7B4FBCA20FEF7B1FB0020FEF708
:10247000AEFBD220FEF7ABFB0020FEF7A8FBD92075
:10248000FEF7A5FB0020FEF7A2FBE020FEF79FFB76
:102490000020FEF79CFBF320FEF799FB0020FEF7DF
:1024A00096FBE120FEF786FB1620FEF790FB00204E
:1024B000FEF78DFB1C20FEF78AFB0020FEF787FB52
:1024C0002220FEF784FB0020FEF781FB3620FEF77A
:1024D0007EFB0020FEF77BFB4520FEF778FB00200B
:1024E000FEF775FB5220FEF772FB0020FEF76FFB34
:1024F0006420FEF76CFB0020FEF769FB7A20FEF7F4
:1025000066FB0020FEF763FB8B20FEF760FB0020DC
:10251000FEF75DFB9920FEF75AFB0020FEF757FB04
:10252000A820FEF754FB0020FEF751FBB920FEF770
:102530004EFB0020FEF74BFBC420FEF748FB0020BB
:10254000FEF745FBCA20FEF742FB0020FEF73FFBEB
:10255000D220FEF73CFB0020FEF739FBD820FEF727
:1025600036FB0020FEF733FBE020FEF730FB0020B7
:10257000FEF72DFBF320FEF72AFB0020FEF727FBDA
:10258000E220FEF717FB0520FEF721FB0020FEF7F7
:102590001EFB0B20FEF71BFB0020FEF718FB1B2089
:1025A000FEF715FB0020FEF712FB3420FEF70FFBB1
:1025B0000020FEF70CFB4420FEF709FB0020FEF78D
:1025C00006FB4F20FEF703FB0020FEF700FB612017
:1025D000FEF7FDFA0020FEF7FAFA7920FEF7F7FA87
:1025E0000020FEF7F4FA8820FEF7F1FA0020FEF74B
:1025F000EEFA9720FEF7EBFA0020FEF7E8FAA620A5
:10260000FEF7E5FA0020FEF7E2FAB720FEF7DFFA60
:102610000020FEF7DCFAC220FEF7D9FA0020FEF710
:10262000D6FAC720FEF7D3FA0020FEF7D0FAD12061
:10263000FEF7CDFA0020FEF7CAFAD620FEF7C7FA59
:102640000020FEF7C4FADD20FEF7C1FA0020FEF7F5
:10265000BEFAF320FEF7BBFA0020FEF7B8FAE3203B
:10266000FEF7A8FA0520FEF7B2FA0020FEF7AFFA4F
:102670000A20FEF7ACFA0020FEF7A9FA1C20FEF7AC
:10268000A6FA002000E0FDE2FEF7A1FA3320FEF7F3
:102690009EFA0020FEF79BFA4420FEF798FA0020ED
:1026A000FEF795FA5020FEF792FA0020FEF78FFA17
:1026B0006220FEF78CFA0020FEF789FA7820FEF7F8
:1026C00086FA0020FEF783FA8820FEF780FA0020C1
:1026D000FEF77DFA9720FEF77AFA0020FEF777FAE8
:1026E000A620FEF774FA0020FEF771FAB720FEF775
:1026F0006EFA0020FEF76BFAC220FEF768FA00209F
:10270000FEF765FAC720FEF762FA0020FEF75FFACF
:10271000D120FEF75CFA0020FEF759FAD520FEF72B
:1027200056FA0020FEF753FADD20FEF750FA00209B
:10273000FEF74DFAF320FEF74AFA0020FEF747FABB
:10274000E420FEF737FA0120FEF741FA0020FEF7F9
:102750003EFA0120FEF73BFA0020FEF738FA02208D
:10276000FEF735FA0020FEF732FA2A20FEF72FFA9C
:102770000020FEF72CFA3C20FEF729FA0020FEF795
:1027800026FA4B20FEF723FA0020FEF720FA5D2000
:10279000FEF71DFA0020FEF71AFA7420FEF717FA6A
:1027A0000020FEF714FA8420FEF711FA0020FEF74D
:1027B0000EFA9320FEF70BFA0020FEF708FAA2208B
:1027C000FEF705FA0020FEF702FAB320FEF7FFF944
:1027D0000020FEF7FCF9BE20FEF7F9F90020FEF715
:1027E000F6F9C420FEF7F3F90020FEF7F0F9CD204A
:1027F000FEF7EDF90020FEF7EAF9D320FEF7E7F93E
:102800000020FEF7E4F9DD20FEF7E1F90020FEF7F5
:10281000DEF9F320FEF7DBF90020FEF7D8F9E5201A
:10282000FEF7C8F90020FEF7D2F90020FEF7CFF935
:102830000020FEF7CCF90020FEF7C9F90220FEF7D0
:10284000C6F90020FEF7C3F92920FEF7C0F90020E1
:10285000FEF7BDF93C20FEF7BAF90020FEF7B7F904
:102860004B20FEF7B4F90020FEF7B1F95D20FEF72A
:10287000AEF90020FEF7ABF97420FEF7A8F90020AE
:10288000FEF7A5F98420FEF7A2F90020FEF79FF9D4
:102890009320FEF79CF90020FEF799F9A220FEF79D
:1028A00096F90020FEF793F9B320FEF790F9002087
:1028B000FEF78DF9BE20FEF78AF90020FEF787F9B2
:1028C000C420FEF784F90020FEF781F9CD20FEF741
:1028D0007EF90020FEF77BF9D320FEF778F900207F
:1028E000FEF775F9DC20FEF772F90020FEF76FF9AC
:1028F000F320FEF76CF90020FEF769F9E620FEF7F9
:1029000059F91120FEF763F90020FEF760F9342031
:10291000FEF75DF90020FEF75AF95620FEF757F949
:102920000020FEF754F97620FEF751F90020FEF75B
:102930004EF97720FEF74BF90020FEF748F96620A4
:10294000FEF745F90020FEF742F98820FEF73FF92F
:102950000020FEF73CF99920FEF739F90020FEF738
:1029600036F9BB20FEF733F90020FEF730F9992045
:10297000FEF72DF90020FEF72AF96620FEF727F969
:102980000020FEF724F95520FEF721F90020FEF77C
:102990001EF95520FEF71BF90020FEF718F9452017
:1029A000FEF715F90020FEF712F94320FEF70FF9A4
:1029B0000020FEF70CF94420FEF709F90020FEF78D
:1029C00006F9E720FEF7F6F83220FEF700F90020BE
:1029D000FEF7FDF85520FEF7FAF80020FEF7F7F8AD
:1029E0007620FEF7F4F80020FEF7F1F86620FEF7F7
:1029F000EEF80020FEF7EBF86720FEF7E8F800207D
:102A0000FEF7E5F86720FEF7E2F80020FEF7DFF8B2
:102A10008720FEF7DCF80020FEF7D9F89920FEF7B2
:102A2000D6F80020FEF7D3F8BB20FEF7D0F8002040
:102A3000FEF7CDF89920FEF7CAF80020FEF7C7F898
:102A40007720FEF7C4F80020FEF7C1F84420FEF717
:102A5000BEF80020FEF7BBF85620FEF7B8F80020BD
:102A6000FEF7B5F82320FEF7B2F80020FEF7AFF826
:102A70003320FEF7ACF80020FEF7A9F84520FEF75A
:102A8000A6F80020FEF7A3F8E820FEF793F8002050
:102A9000FEF79DF80020FEF79AF89920FEF797F8C8
:102AA0000020FEF794F88720FEF791F80020FEF74B
:102AB0008EF88820FEF78BF80020FEF788F8772044
:102AC000FEF785F80020FEF782F86620FEF77FF813
:102AD0000020FEF77CF88820FEF779F80020FEF74A
:102AE00076F8AA20FEF773F80020FEF770F8BB20F6
:102AF000FEF76DF80020FEF76AF89920FEF767F8F8
:102B00000020FEF764F86620FEF761F80020FEF76B
:102B10005EF85520FEF75BF80020FEF758F85520C8
:102B2000FEF755F80020FEF752F84420FEF74FF864
:102B30000020FEF74CF84420FEF749F80020FEF78D
:102B400046F85520FEF743F80020FEF740F8E9204C
:102B5000FEF730F8AA20FEF73AF80020FEF737F823
:102B60000020FEF734F80020FEF731F80020FEF7D1
:102B700021F8AA20FEF72BF8CF20FEF71BF8002043
:102B8000FEF725F80020FEF722F80020FEF71FF8D8
:102B90000020FEF71CF80020FEF719F80020FEF7D1
:102BA00016F80020FEF713F80020FEF710F80020BA
:102BB000FEF70DF80020FEF70AF80020FEF707F8F0
:102BC0000020FEF704F80020FEF701F80020FDF7D2
:102BD000FEFF0020FDF7FBFF0020FDF7F8FF0020BF
:102BE000FDF7F5FFF020FDF7E5FF0020FDF7EFFF13
:102BF0005020FDF7ECFF0020FDF7E9FF0020FDF776
:102C0000E6FF0020FDF7E3FFF320FDF7D3FF0020F0
:102C1000FDF7DDFFF920FDF7CDFF0620FDF7D7FF1B
:102C20001020FDF7D4FF2920FDF7D1FF0020FDF78C
:102C3000CEFF3A20FDF7BEFF5520FDF7C8FF11205B
:102C4000FDF7B8FF642002F05FFC2920FDF7B2FF1A
:102C50003520FDF7AFFF0020FDF7B9FF5120FDF74C
:102C6000A9FFFF20FDF7B3FF5320FDF7A3FF2C20A2
:102C7000FDF7ADFF5520FDF79DFF8220FDF7A7FF73
:102C80002C20FCE348457DD14FF47044552120466B
:102C9000FDF7D2FF651CAA212846FDF7CDFFA61C33
:102CA00052213046FDF7C8FFE71C08213846FDF7E2
:102CB000C3FF4FF2040C01216046FDF7BDFF0D215B
:102CC0004FF43040FDF7B8FF0D214BF20100FDF746
:102CD000B3FF0D214BF20200FDF7AEFF4FF4364873
:102CE00034214046FDF7A8FF34214BF20160FDF787
:102CF000A3FF34214BF20260FDF79EFF4FF43149F0
:102D00000D214846FDF798FF4BF2011A0D21504660
:102D1000FDF792FF0D214BF20210FDF78DFF3421DC
:102D20004FF43740FDF788FF34214BF20170FDF777
:102D300083FF34214BF20270FDF77EFF00214FF438
:102D40003240FDF779FF00214BF20120FDF774FFBF
:102D500000214BF20220FDF76FFF24214FF4384091
:102D6000FDF76AFF24214BF60100FDF765FF2421E2
:102D70004BF60200FDF760FF01214FF43F40FDF7E5
:102D80005BFF00E0FEE30F214FF43340FDF754FFFB
:102D90000F214BF20130FDF74FFF0F214BF20230B4
:102DA000FDF74AFF34214FF43940FDF745FF342148
:102DB0004BF60110FDF740FF34214BF60210FDF7F2
:102DC0003BFF08214FF43540FDF736FF08214BF259
:102DD0000150FDF731FF08214BF20250FDF72CFFA7
:102DE00003214FF44240FDF727FF24214FF43A40DE
:102DF000FDF722FF24214BF60120FDF71DFF2421C2
:102E00004BF60220FDF718FF00214FF43C40FDF780
:102E100013FF78214BF60140FDF70EFF00214BF622
:102E20000240FDF709FF00214FF43D40FDF704FF8C
:102E300078214BF60150FDF7FFFE00214BF60250C2
:102E4000FDF7FAFE00214FF43E40FDF7F5FE642148
:102E50004BF60160FDF7F0FE00214FF45140FDF705
:102E6000EBFE33214DF20110FDF7E6FE00214DF29D
:102E70000210FDF7E1FE34214DF20310FDF7DCFEF8
:102E800000214DF20410FDF7D7FE3A214DF2051056
:102E9000FDF7D2FE00214DF20610FDF7CDFE4A21CE
:102EA0004DF20710FDF7C8FE00214DF20810FDF7A6
:102EB000C3FE5C214DF20910FDF7BEFE00214DF26C
:102EC0000A10FDF7B9FE81214DF20B10FDF7B4FE9B
:102ED00000214DF20C10FDF7AFFEA6214DF20D10B2
:102EE000FDF7AAFE00214DF20E10FDF7A5FEE5212B
:102EF0004DF20F10FDF7A0FE01214DF21010FDF76D
:102F00009BFE13214DF21110FDF796FE01214DF2AB
:102F10001210FDF791FE54214DF21310FDF78CFEB7
:102F200001214DF21410FDF787FE82214DF215109C
:102F3000FDF782FE01214DF21610FDF77DFECA213C
:102F40004DF21710FDF778FE02214DF21810FDF733
:102F500073FE00214DF21910FDF76EFE02214DF2B5
:102F60001A10FDF769FE01214DF21B10FDF764FEFA
:102F700002214DF21C10FDF75FFE34214DF21D10B1
:102F8000FDF75AFE02214DF21E10FDF755FE672196
:102F90004DF21F10FDF750FE02214DF22010FDF7FB
:102FA0004BFE84214DF22110FDF746FE02214DF229
:102FB0002210FDF741FEA4214DF22310FDF73CFE47
:102FC00002214DF22410FDF737FEB7214DF22510F6
:102FD000FDF732FE02214DF22610FDF72DFECF2126
:102FE0004DF22710FDF728FE02214DF22810FDF7C3
:102FF00023FEDE214DF22910FDF71EFE02214DF2C7
:103000002A10FDF719FEF2214DF22B10FDF714FEE8
:1030100002214DF22C10FDF70FFEFE214DF22D1076
:10302000FDF70AFE03214DF22E10FDF705FE1021DB
:103030004DF22F10FDF700FE03214DF23010FDF789
:10304000FBFD33214DF23110FDF7F6FD03214DF26A
:103050003210FDF7F1FD6D214DF23310FDF7ECFD5F
:1030600000214FF45240FDF7E7FD33214DF20120DE
:10307000FDF7E2FD00214DF20220FDF7DDFD3421D8
:103080004DF20320FDF7D8FD00214DF20420FDF79D
:10309000D3FD3A214DF20520FDF7CEFD00214DF282
:1030A0000620FDF7C9FD4A214DF20720FDF7C4FDBA
:1030B00000214DF20820FDF7BFFD5C214DF20920F3
:1030C000FDF7BAFD00214DF20A20FDF7B5FD812183
:1030D0004DF20B20FDF7B0FD00214DF20C20FDF765
:1030E000ABFDA6214DF20D20FDF7A6FD00214DF20E
:1030F0000E20FDF7A1FDE5214DF20F20FDF79CFD0F
:1031000001214DF21020FDF797FD13214DF2112002
:10311000FDF792FD01214DF21220FDF78DFD5421A6
:103120004DF21320FDF788FD01214DF21420FDF72B
:1031300083FD82214DF21520FDF77EFD01214DF228
:103140001620FDF779FDCA214DF21720FDF774FD19
:1031500002214DF21820FDF76FFD00214DF21920DC
:10316000FDF76AFD02214DF21A20FDF765FD0121F0
:103170004DF21B20FDF760FD02214DF21C20FDF7F2
:103180005BFD34214DF21D20FDF756FD02214DF26D
:103190001E20FDF751FD67214DF21F20FDF74CFD6C
:1031A00002214DF22020FDF747FD84214DF2212020
:1031B000FDF742FD02214DF22220FDF73DFDA42145
:1031C0004DF22320FDF738FD02214DF22420FDF7BA
:1031D00033FDB7214DF22520FDF72EFD02214DF2E2
:1031E0002620FDF729FDCF214DF22720FDF724FDF4
:1031F00002214DF22820FDF71FFDDE214DF229208E
:10320000FDF71AFD02214DF22A20FDF715FDF221EE
:103210004DF22B20FDF710FD02214DF22C20FDF781
:103220000BFDFE214DF22D20FDF706FD03214DF291
:103230002E20FDF701FD10214DF22F20FDF7FCFCA3
:1032400003214DF23020FDF7F7FC33214DF2312000
:10325000FDF7F2FC03214DF23220FDF7EDFC6D216C
:103260004DF23320FDF7E8FC00214FF45340FDF709
:10327000E3FC33214DF20130FDF7DEFC00214DF27D
:103280000230FDF7D9FC34214DF20330FDF7D4FCB8
:1032900000214DF20430FDF7CFFC3A214DF205300C
:1032A000FDF7CAFC00214DF20630FDF7C5FC4A21AE
:1032B0004DF20730FDF7C0FC00214DF20830FDF75C
:1032C000BBFC5C214DF20930FDF7B6FC00214DF24C
:1032D0000A30FDF7B1FC81214DF20B30FDF7ACFC5B
:1032E00000214DF20C30FDF7A7FCA6214DF20D3068
:1032F000FDF7A2FC00214DF20E30FDF79DFCE5210B
:103300004DF20F30FDF798FC01214DF21030FDF722
:1033100093FC13214DF21130FDF78EFC01214DF28B
:103320001230FDF789FC54214DF21330FDF784FC77
:1033300001214DF21430FDF77FFC82214DF2153052
:10334000FDF77AFC01214DF21630FDF775FCCA211C
:103350004DF21730FDF770FC02214DF21830FDF7E9
:103360006BFC00214DF21930FDF766FC02214DF295
:103370001A30FDF761FC01214DF21B30FDF75CFCBA
:1033800002214DF21C30FDF757FC34214DF21D3067
:10339000FDF752FC02214DF21E30FDF74DFC672176
:1033A0004DF21F30FDF748FC02214DF22030FDF7B1
:1033B00043FC84214DF22130FDF73EFC02214DF209
:1033C0002230FDF739FCA4214DF22330FDF734FC07
:1033D00002214DF22430FDF72FFCB7214DF22530AC
:1033E000FDF72AFC02214DF22630FDF725FCCF2106
:1033F0004DF22730FDF720FC02214DF22830FDF779
:103400001BFCDE214DF22930FDF716FC02214DF2A6
:103410002A30FDF711FCF2214DF22B30FDF70CFCA8
:1034200002214DF22C30FDF707FCFE214DF22D302C
:10343000FDF702FC03214DF22E30FDF7FDFB1021BC
:103440004DF22F30FDF7F8FB03214DF23030FDF740
:10345000F3FB33214DF23130FDF7EEFB03214DF24A
:103460003230FDF7E9FB6D214DF23330FDF7E4FB1F
:1034700000214FF45440FDF7DFFB332100E080E3EF
:103480004DF20140FDF7D8FB00214DF20240FDF75F
:10349000D3FB34214DF20340FDF7CEFB00214DF26A
:1034A0000440FDF7C9FB3A214DF20540FDF7C4FB8E
:1034B00000214DF20640FDF7BFFB4A214DF20740C7
:1034C000FDF7BAFB00214DF20840FDF7B5FB5C218A
:1034D0004DF20940FDF7B0FB00214DF20A40FDF727
:1034E000ABFB81214DF20B40FDF7A6FB00214DF215
:1034F0000C40FDF7A1FBA6214DF20D40FDF79CFB12
:1035000000214DF20E40FDF797FBE5214DF20F40F3
:10351000FDF792FB01214DF21040FDF78DFB1321C9
:103520004DF21140FDF788FB01214DF21240FDF7ED
:1035300083FB54214DF21340FDF77EFB01214DF238
:103540001440FDF779FB82214DF21540FDF774FB25
:1035500001214DF21640FDF76FFBCA214DF21740D5
:10356000FDF76AFB02214DF21840FDF765FB0021D3
:103570004DF21940FDF760FB02214DF21A40FDF7B4
:103580005BFB00E000E301214DF21B40FDF754FB23
:1035900002214DF21C40FDF74FFB34214DF21D403E
:1035A000FDF74AFB02214DF21E40FDF745FB672166
:1035B0004DF21F40FDF740FB02214DF22040FDF788
:1035C0003BFB84214DF22140FDF736FB02214DF2F9
:1035D0002240FDF731FBA4214DF22340FDF72CFBE7
:1035E00002214DF22440FDF727FBB7214DF2254083
:1035F000FDF722FB02214DF22640FDF71DFBCF21F6
:103600004DF22740FDF718FB02214DF22840FDF74F
:1036100013FBDE214DF22940FDF70EFB02214DF296
:103620002A40FDF709FBF2214DF22B40FDF704FB88
:1036300002214DF22C40FDF7FFFAFE214DF22D4004
:10364000FDF7FAFA03214DF22E40FDF7F5FA1021AD
:103650004DF22F40FDF7F0FA03214DF23040FDF717
:10366000EBFA33214DF23140FDF7E6FA03214DF23A
:103670003240FDF7E1FA6D214DF23340FDF7DCFAFF
:1036800000214FF45540FDF7D7FA33214DF2015098
:10369000FDF7D2FA00214DF20250FDF7CDFA3421A8
:1036A0004DF20350FDF7C8FA00214DF20450FDF72A
:1036B000C3FA3A214DF20550FDF7BEFA00214DF252
:1036C0000650FDF7B9FA4A214DF20750FDF7B4FA5A
:1036D00000214DF20850FDF7AFFA5C214DF2095080
:1036E000FDF7AAFA00214DF20A50FDF7A5FA812153
:1036F0004DF20B50FDF7A0FA00214DF20C50FDF7F2
:103700009BFAA6214DF20D50FDF796FA00214DF2DD
:103710000E50FDF791FAE5214DF20F50FDF78CFAAE
:1037200001214DF21050FDF787FA13214DF211508F
:10373000FDF782FA01214DF21250FDF77DFA542176
:103740004DF21350FDF778FA01214DF21450FDF7B8
:1037500073FA82214DF21550FDF76EFA01214DF2F8
:103760001650FDF769FACA214DF21750FDF764FAB9
:1037700002214DF21850FDF75FFA00214DF2195069
:10378000FDF75AFA02214DF21A50FDF755FA0121C0
:103790004DF21B50FDF750FA02214DF21C50FDF77F
:1037A0004BFA34214DF21D50FDF746FA02214DF23D
:1037B0001E50FDF741FA67214DF21F50FDF73CFA0C
:1037C00002214DF22050FDF737FA84214DF22150AD
:1037D000FDF732FA02214DF22250FDF72DFAA42115
:1037E0004DF22350FDF728FA02214DF22450FDF747
:1037F00023FAB7214DF22550FDF71EFA02214DF2B2
:103800002650FDF719FACF214DF22750FDF714FA93
:1038100002214DF22850FDF70FFADE214DF229501A
:10382000FDF70AFA02214DF22A50FDF705FAF221BE
:103830004DF22B50FDF700FA02214DF22C50FDF70E
:10384000FBF9FE214DF22D50FDF7F6F903214DF263
:103850002E50FDF7F1F910214DF22F50FDF7ECF944
:1038600003214DF23050FDF7E7F933214DF231508D
:10387000FDF7E2F903214DF23250FDF7DDF96D213C
:103880004DF23350FDF7D8F900214FF45640FDF7C3
:10389000D3F933214DF20160FDF7CEF900214DF24D
:1038A0000260FDF7C9F934214DF20360FDF7C4F958
:1038B00000214DF20460FDF7BFF93A214DF2056099
:1038C000FDF7BAF900214DF20660FDF7B5F94A217E
:1038D0004DF20760FDF7B0F900214DF20860FDF7E9
:1038E000ABF95C214DF20960FDF7A6F900214DF21C
:1038F0000A60FDF7A1F981214DF20B60FDF79CF9FB
:1039000000214DF20C60FDF797F9A6214DF20D60F4
:10391000FDF792F900214DF20E60FDF78DF9E521DA
:103920004DF20F60FDF788F901214DF21060FDF7AF
:1039300083F913214DF21160FDF77EF901214DF25B
:103940001260FDF779F954214DF21360FDF774F917
:1039500001214DF21460FDF76FF982214DF21560DF
:10396000FDF76AF901214DF21660FDF765F9CA21EC
:103970004DF21760FDF760F902214DF21860FDF776
:103980005BF900214DF21960FDF756F902214DF265
:103990001A60FDF751F901214DF21B60FDF74CF95A
:1039A00002214DF21C60FDF747F934214DF21D60F4
:1039B000FDF742F902214DF21E60FDF73DF9672146
:1039C0004DF21F60FDF738F902214DF22060FDF73E
:1039D00033F984214DF22160FDF72EF902214DF2D9
:1039E0002260FDF729F9A4214DF22360FDF724F9A7
:1039F00002214DF22460FDF71FF9B7214DF2256039
:103A0000FDF71AF902214DF22660FDF715F9CF21D5
:103A10004DF22760FDF710F902214DF22860FDF705
:103A20000BF9DE214DF22960FDF706F902214DF276
:103A30002A60FDF701F9F2214DF22B60FDF7FCF849
:103A400002214DF22C60FDF7F7F8FE214DF22D60BA
:103A5000FDF7F2F803214DF22E60FDF7EDF810218D
:103A60004DF22F60FDF7E8F803214DF23060FDF7CD
:103A7000E3F833214DF23160FDF7DEF803214DF21A
:103A80003260FDF7D9F86D214DF23360FDF7D4F8BF
:103A900055212046FDF7D0F8AA212846FDF7CCF89D
:103AA00052213046FDF7C8F808213846FDF7C4F822
:103AB00000216046FDF7C0F8CC214846FDF7BCF870
:103AC00000215046FDF7B8F805214046FDF7B4F84F
:103AD00070214FF43740FDF7AFF870214BF20170C1
:103AE000FDF7AAF801214FF43840FDF7A5F80321AE
:103AF0004BF60100FDF7A0F803214BF60200FDF79D
:103B00009BF803214BF60300FDF796F802214FF4D2
:103B10003C40FDF791F800214BF60140FDF78CF891
:103B200000214BF60240FDF787F8D0214FF44940C1
:103B3000FDF782F802214CF60110FDF77DF85021C7
:103B40004CF60210FDF778F850214CF60310FDF703
:103B500073F850214CF60410FDF76EF800214FF475
:103B60005450FDF769F855214FF46850FDF764F89B
:103B70004FF48850FDF71EF8782001F0AEFC4FF4AA
:103B80002450FDF717F87BE15045FCD1E220FDF70A
:103B900011F8FB4C4FF48077276165156561DFF8FC
:103BA000E4831D21C8F80010802666612661256126
:103BB000276165610220C8F8000066612661256101
:103BC000276165610420C8F80000666126612561EF
:103BD000642001F082FCE020FCF7ECFF27616561C6
:103BE0004FF00109C8F800906661266125610A203E
:103BF00001F08AFCE020FCF7DDFF276165614FF0F2
:103C0000030AC8F800A06661266125610C2001F056
:103C10007BFC0120FCF7CEFF0A2001F075FCE620BA
:103C2000FCF7C8FF276165612F21C8F800106661A5
:103C30002661256127616561FF20C8F80000666183
:103C40002661256127616561C8F80000666126610B
:103C50002561B020FCF7AEFF276165612021C8F81F
:103C60000010666126612561276165614FF0000CD7
:103C7000C8F800C066612661256127616561C8F8E2
:103C800000A06661266125612761656140F21F31F0
:103C9000C8F8001066612661256127616561C8F872
:103CA00000906661266125612761656140F2DF1140
:103CB000C8F8001066612661256127616561C8F852
:103CC00000C0666126612561B420FCF773FF27619F
:103CD00065610420C8F800006661266125612761DE
:103CE000656140F21F414046C8F8001066612661D8
:103CF000256127616561C8F800C06661266125619C
:103D0000276165612E21C8F8001066612661256172
:103D100027616561C0F800C0666126612561276181
:103D20006561C0F800C06661266125612761656133
:103D3000C0F800C066612661256127616561C0F831
:103D400000C0666126612561B620FCF733FF27615C
:103D5000656102214046C8F8001066612661256150
:103D6000276165614FF40371C8F800106661266130
:103D7000256127616561C8F800C06661266125611B
:103D800027616561172101606661266125612761F0
:103D900065611521016066612661256127616561A4
:103DA000C0F800C066612661256127616561C0F8C1
:103DB00000C0666126612561F020FCF7FBFE2761EB
:103DC0006561C8F800A06661266125612920FCF7BD
:103DD000F1FED020FCF7EEFE27616561C8F800C057
:103DE000666126612561BE20FCF7E4FE27616561FE
:103DF0000521C8F8001066612661256127616561AB
:103E0000FE21C8F8001066612661256127616561A1
:103E1000C8F8009066612661256127616561C8F870
:103E200000C066612661256127616561C8F800C030
:103E300066612661256127616561C8F800C0666119
:103E400026612561B820FCF7B5FE27616561C8F8D9
:103E500000A066612661256127616561C8F8009050
:103E6000666126612561BA20FCF7A4FE27616561C1
:103E7000C8F800906661266125616420FDF7B2FAFA
:103E80000020FDF701FB40490120C1F8A801584678
:103E9000FDF78CFCBDE8F88F2DE9FF4F98460098A0
:103EA0000C46101A401C86B24FF4807B344F4FF4FE
:103EB00000794FF0800A0D9D18E021460098FCF72C
:103EC000EBFEFCF7D0FE0020DC464A462D4B514667
:103ED00008E0C7F810C07A611D60796139613A6104
:103EE000401C80B2B042F4D3641CA4B24445E4D96F
:103EF000BDE8FF8F2DE9F04F8346A2EB0B00401C7D
:103F0000894685B2A3EB0900401C1FFA80FA002401
:103F1000099E21E009EB040081B25846FCF7BCFE83
:103F2000FCF7A1FE164900204B154FF48078154A86
:103F300080270DE0C1F810804B6104FB050C36F8BA
:103F40001CC0C2F800C04F610F610B61401C80B201
:103F5000A842EFD3641CA4B25445DBD3BDE8F08F74
:103F60002DE9FE4F0026A2EB000882465F1A701E64
:103F700035468946B8F1000F08DD4FF0010108E031
:103F8000001001400C0C01400000224203D14FF010
:103F90000001019102E0C8F100080190002F02DD4C
:103FA0004FF0010002E003D14FF00000009002E06A
:103FB000C7F1000700904046B84501DD044600E027
:103FC0003C46601C4FF0000B029015E01FFA89F18F
:103FD0001FFA8AF0FDF705F946443D44A64202DD8A
:103FE0000199361B8A44A54202DD00992D1B8944A4
:103FF0000BF101001FFA80FB02998B45E6DDBDE85D
:10400000FE8FF0B51C4615460E4607460B46FFF7D9
:10401000A7FF3A46234631461046FFF7A1FF234645
:104020002A4619463846FFF79BFF2A462346314663
:10403000BDE8F040104693E72DE9FC4F8046002490
:10404000154603200F46A0EB450649E0781B81B2D8
:1040500008EB040A01901FFA8AF0FDF7C2F8381B3A
:1040600081B208EB050900901FFA89F0FDF7B9F855
:1040700007EB040B1FFA8BF11FFA89F0FDF7B1F87B
:1040800007EB05091FFA89F11FFA8AF0FDF7A9F875
:10409000A8EB040A1FFA89F11FFA8AF0FDF7A1F8CC
:1040A000A8EB05091FFA8BF11FFA89F0FDF799F8C3
:1040B000019881B21FFA8AF0FDF793F8009881B257
:1040C0001FFA89F0FDF78DF8641C002E03DA06EB69
:1040D0008406B61D04E0601B06EB80066D1E0A36E2
:1040E000AC42B3DDBDE8FC8F2DE9F84F82461F4698
:1040F0000C468B46580700D0012000EBD70079080A
:104100004843203AC0B202F0FF090026009041E087
:104110000C2F10D0102F12D0182F3ED1914909EB3F
:10412000C90001EB80004FF00008855D28060AD524
:104130008D4802880BE009EB49008C49F1E78C4976
:1041400001EB0910EFE70A9828B987484288214611
:104150005046FDF75AF86806050E8648641CA4B25E
:104160004088A04219D9A4EB0B00B84209D10AF14A
:1041700001001FFA80FA7F485C46018851450CD93E
:1041800006E008F1010000F0FF08B8F1080FCDD3F8
:10419000761CF6B200988642BAD37BE6034601202D
:1041A00000E05843491EC9B2FBD270472DE9FF4FCA
:1041B00081B00027DDF838B01D46924680463C4667
:1041C000B9464FEA5B0627E0281B401EC1B20A2011
:1041D000FFF7E4FFBAFBF0F00A21B0FBF1F201FBBC
:1041E000120027B9691E8C4201DA48B1012730302C
:1041F000C2B206FB048080B25B46CDF8009006E0B8
:1042000006FB048080B25B462022CDF80090029924
:10421000FFF76AFF641CE4B2AC42D5D305B09DE65B
:104220002DE9FF4F81B08046DDF83CA00E984FF09D
:1042300000091F4693464C460AF0010546082BE04C
:10424000381B401EC1B20A20FFF7A8FFBBFBF0F0ED
:104250000A21B0FBF1F201FB1200B9F1000F05D108
:10426000791E8C4202DA48B14FF001093030C2B2F7
:1042700006FB048080B200950E9B08E05FEA0A60AE
:1042800006FB04800E9B80B2009508D5302202996F
:10429000FFF72AFF641CE4B2BC42D1D3BEE7202260
:1042A000F5E72DE9F84F044600F0FF0810190D4618
:1042B000DDE90A761FFA80FA58191FFA80F94FF0E3
:1042C000000B11E0544502D3E819444685B24D4530
:1042D0000FD23B4629462046CDF800B0FFF704FF39
:1042E00004EB570084B2761C3278A2F120005E28DD
:1042F000E8D9CFE52DE9F04F9A46834601EB0A0055
:10430000401E164683B20BEB0600401E82B2894661
:104310005846FDF712F9002515E0002405FB06F7C5
:104320000BEB05080BE009981FFA88F120443A5C72
:1043300009EB040080B2FCF768FF641CE4B2B442ED
:10434000F1D36D1CEDB25545E7D30A48418800888A
:10435000BDE8F04F491E401E8BB282B200210846D4
:10436000FDF7EBB85609010814000020F2FE000822
:1043700066030108280D002038B50121142001F042
:10438000CAFB0121384801F069FA4FF40040ADF84A
:104390000000364D48248DF803406946284601F058
:1043A000D2F92021ADF800108DF80340694630485D
:1043B00001F0C9F90120ADF8000028208DF80300B4
:1043C0006946284601F0BFF938BD2DE9F041294C76
:1043D000274F264D01264FF4004808B1267001E012
:1043E000207878B12021384601F003FA88B141469F
:1043F000284601F0FEF960B10121284601F0F9F9E3
:10440000012806D02021384601F0F3F901281DD0FB
:1044100028E00A2001F078F800202070202138469A
:1044200001F0E7F958B14146284601F0E2F948B1F8
:104430000121284601F0DDF9012805D012E0012014
:10444000BDE8F0810220FBE70320F9E7414628465A
:1044500001F0CFF9012805D10121284601F0C9F961
:1044600000B926700020EBE7000230000008014090
:10447000001001401E00002070B506460024334D98
:1044800003E0641CE4B2C82C0FD80221284601F0D6
:1044900089FE0028F5D03146284601F03FFE002471
:1044A00005E0641CE4B2C82C01D9002070BD0121D4
:1044B000284601F077FE0028F3D0284601F030FEB0
:1044C000C0B270BD38B5012141F2040001F023FBF8
:1044D000E020ADF8000018208DF8030003201C4CEC
:1044E0008DF802006946204601F02DF9E0212046B2
:1044F00001F093F9174800214FF482720180428045
:1045000081800222C280012202815202428138222D
:104510008281C181072101820C4C0146204601F0B5
:1045200059FD0121204601F0D1FDFF20FFF7A4FF36
:1045300038BD06490A8822F038020A800A880243F8
:104540000A80088840F04000088070470030014031
:1045500000080140360D0020FFF78EBF3820FFF71E
:10456000E8BF0020FFF7E5BF38B50121042001F0C6
:10457000D2FA1C20ADF8000010208DF803000320B3
:10458000FC4C8DF802006946204601F0DCF81C2145
:10459000204601F042F9FFF795FFF7490120C1F8E5
:1045A0008C0138BDF4490120C1F88C01FF20FFF7D0
:1045B00063BF70B500246FF07F45FF20FFF7CCFF8D
:1045C000FF2804D0641CAC42F7D3012070BD00204A
:1045D00070BDE94910B50020C1F88C01FFF7E9FF73
:1045E000002802D0FFF7DEFF012010BD70B50546A0
:1045F0004FF6FF7401E0641EA4B2FF20FFF7ACFF8A
:10460000A84202D0002CF6D102E00CB1002070BD0F
:10461000FF2070BD70B504460D46FE20FFF7E6FF93
:1046200028B1012070BDFFF727FF04F8010B6D1EB4
:10463000ADB24FF0FF00F6D2FFF71EFFFF20FFF7ED
:104640001BFF002070BD70B50C460546FFF7B1FF9B
:1046500008B1012070BD2046FFF70EFFFD2C18D0D9
:1046600000244FF40076285DFFF706FF641CA4B217
:10467000B442F8D3FF20FFF7FFFEFF20FFF7FCFE58
:10468000FF20FFF769FF00F01F00052801D002207E
:1046900070BD002070BD70B516460C460546FFF78C
:1046A00081FFFFF796FF08B1FF2070BD45F0400085
:1046B000FFF7E2FE200EFFF7DFFEC4F30740FFF72F
:1046C000DBFEC4F30720FFF7D7FEE0B2FFF7D4FE0E
:1046D0003046FFF7D1FE0C2D02D1FF20FFF7CCFEB4
:1046E0001F24FF20FFF738FF0106DED5641EE4B269
:1046F000F7D270BD70B50546012200210A20FFF7F0
:10470000CAFF040004D110212846FFF783FF0446A6
:10471000FFF748FF0CB1012070BD002070BD70B5DF
:104720000546012200210920FFF7B5FF040004D14E
:1047300010212846FFF76EFF0446FFF733FF0CB148
:10474000012070BD002070BD1FB56846FFF7E7FF70
:1047500010B1002004B010BD9DF800100120B0EB96
:10476000911F09D19DF808209DF8091000EB022047
:10477000084400048009EDE79DF805009DF80A1043
:1047800000F00F0000EBD1109DF809109DF80720F4
:1047900001F0030100EB41019DF80800800900EBE6
:1047A00082009DF8062002F0030200EB8220401CEC
:1047B000C91F8840CEE72DE9F843FFF7D5FE382022
:1047C000FFF7B7FE0024FF20FFF756FE641CA4B2DB
:1047D0000A2CF8D31424002195220846FFF75BFF2A
:1047E0000546012802D0641EA4B2F4D2634E00270D
:1047F000012D37707AD187224FF4D5710820FFF749
:104800004AFF4FF6FE7801281ED0012200213720F2
:10481000FFF741FF012200212920FFF73CFF01287B
:104820004FD8022030704446012200213720FFF784
:1048300032FF012200212920FFF72DFF05004DD076
:10484000641EA4B2F0D249E000246F46FF20FFF7B7
:1048500083FE3855641CA4B2042CF7D39DF80200E3
:10486000012843D19DF80300AA283FD144464FF0C8
:104870008048012200213720FFF70DFF0122414629
:104880002920FFF708FF050002D0641EA4B2F0D271
:10489000B4B1012200213A20FFF7FDFE80B90024C7
:1048A000FF20FFF759FE3855641CA4B2042CF7D33F
:1048B0009DF80000400601D5062000E0042030707D
:1048C00014E0012030704446012200211046FFF719
:1048D000E2FE050002D0641EA4B2F5D22CB1012282
:1048E00051021020FFF7D7FE00B13770FFF75AFED4
:1048F0000020FFF71EFE307810B10020BDE8F883DD
:104900000DB12846FAE7AA20F8E72DE9F04106465E
:104910001A4815460078062800D049024FF400775F
:10492000012D4FF0010219D01220FFF7B4FE3946D5
:104930003046FFF76FFE6D1E044606F5007615F053
:10494000FF0501D0002CF2D0012200210C20FFF73E
:10495000A2FEFFF727FE2046BDE8F0811120FFF7F9
:104960009AFE0400F5D139463046FFF753FE04465F
:10497000EFE7000000080140000021421F00002076
:1049800070B506461D4815460C460078062800D02E
:104990004C02012D13D0012809D00122002137201B
:1049A000FFF779FE012229461720FFF774FE012246
:1049B00021461920FFF76FFE04000AD01AE00122F9
:1049C00021461820FFF767FE040013D1FE21304670
:1049D0000DE0FC213046FFF736FE6D1E06F5007631
:1049E00015F0FF0501D00028F3D0FD210020FFF7CE
:1049F0002AFE0446FFF7D6FD204670BD1F000020AA
:104A000070B5CA4D0024C5F88841902005F5C475DD
:104A1000FFF732FD0020FFF72FFD0020FFF72CFDF0
:104A20000020FFF729FDFF20FFF726FD44EA0024C0
:104A3000FF20FFF721FD20430121296070BD38B51B
:104A40000121042001F067F81C20ADF800001020BF
:104A50008DF803000320B64C8DF80200694620460D
:104A600000F071FE1C21204600F0D7FEFFF72AFD62
:104A70000820FFF75EFDFFF7C3FFAE49088038BD91
:104A800010B5AA4C0020C4F88801052004F5C474B0
:104A9000FFF7F2FCFF20FFF7EFFC0121216010BDC2
:104AA00070B5A24C00210546C4F88811012004F518
:104AB000C474FFF7E1FC2846FFF7DEFC012020600C
:104AC00070BD10B5994C0020C4F88801062004F58B
:104AD000C474FFF7D1FC0120206010BD10B5934CC9
:104AE0000020C4F88801042004F5C474FFF7C4FC56
:104AF0000120206010BD2DE9F0418C4F06460020BA
:104B000015460C46C7F888010320FFF7B5FCC4F32F
:104B10000740FFF7B1FCC4F30720FFF7ADFCE0B29C
:104B2000FFF7AAFC002405E0FF20FFF7A5FC3055A5
:104B3000641CA4B2AC42F7D30120C7F88801BDE8D9
:104B4000F08110B5FFF79CFFC007FBD110BD2DE928
:104B5000F04115460C460646FFF7B3FF734F0020A1
:104B6000C7F888010220FFF787FCC4F30740FFF76E
:104B700083FCC4F30720FFF77FFCE0B2FFF77CFC67
:104B8000002404E0305DFFF777FC641CA4B2AC4263
:104B9000F8D30120C7F88801BDE8F041D1E72DE93D
:104BA000F0410746C8B2C0F580740E461546A242D1
:104BB00000D814464FF48078224631463846FFF735
:104BC000C6FFA542BBD0281B2744264485B24446D5
:104BD000A542F1D82C46EFE7B1E770B50403FFF723
:104BE00070FFFFF7AEFF514D0020C5F8880120206F
:104BF00005F5C475FFF740FCC4F30740FFF73CFC24
:104C0000C4F30720FFF738FCE0B2FFF735FC0120C2
:104C10002860BDE8704094E72DE9F05F81461546B5
:104C20008A464FF4805002F05AF9070046D0CAF382
:104C30000B06C6F580544FEA1A38A54200D82C4618
:104C40004FEA08318B464FF480523846FFF753FF46
:104C5000002005E03118795CFF2903D1401C80B2A7
:104C6000A042F7D3A04220D24046FFF7B6FF002073
:104C700005E019F800108219401CB95480B2A04216
:104C8000F7D359464FF480523846FFF788FFA542C4
:104C90000FD0281BA144A244002685B24FF48054B3
:104CA00008F10108A542CBD8C9E72246514648463B
:104CB000EBE73846BDE8F05F02F00AB9BDE8F09FC7
:104CC00010B5FFF7FEFEFFF73CFF184C0020C4F8BC
:104CD0008801C72004F5C474FFF7CEFB01202060D3
:104CE000BDE810402DE710B5104C0020C4F8880135
:104CF000B92004F5C474FFF7BFFB01202060BDE8B4
:104D00001040032000F0E9BB10B5084C0020C4F8A7
:104D10008801AB2004F5C474FFF7AEFB01202060CE
:104D2000BDE81040032000F0D8BB00000000214285
:104D30000008014020000020FEB50121084600F0D7
:104D4000EAFEFFF719FB0521022000F0B0FD002567
:104D500020208DF804500C2600908DF80560012469
:104D60008DF80640684601F0D1FF0F21002000F0C9
:104D70009EFDE0038DF8045000908DF805608DF8DD
:104D80000640684601F0C2FF0021084600F08FFD92
:104D90008DF8045008208DF8050000948DF8064029
:104DA000684601F0B3FF06208DF8080002268DF852
:104DB00009608DF80A608DF80B4002A801F093F8A5
:104DC00017208DF808008DF809608DF80A408DF8DD
:104DD0000B4002A801F087F828208DF808008DF814
:104DE00009608DF80A508DF80B4002A801F07BF89D
:104DF000FEBD70B50A2000F087FB224D0121284638
:104E000000F0F7FC012813D1C82000F07DFB012140
:104E1000284600F0EEFC1C4C012801D0032006E0DF
:104E20000121284600F0E5FC0128F9D0052020707A
:104E3000BDE87040012001F0C7BF10B50A2000F0A6
:104E400063FB2021114800F0D4FC10B90E49012069
:104E50000870BDE81040202001F0B6BF10B50A2050
:104E600000F052FB4FF400442146064800F0C1FC1C
:104E700010B9054A022010702046BDE8104001F02C
:104E8000A3BF0000000801402200002000100140E4
:104E9000FFF7F2BA2820FFF74CBB1020FFF749BB01
:104EA000F848816941F004018161F748016821F403
:104EB00070210160016841F440310160001D01680A
:104EC000F24A114001600168F14A11430160EE4865
:104ED0000C30016841F6101211430160FFF7F2BA7D
:104EE0002DE9F041EB4C0D460646D4F83021002A5E
:104EF000FBD02820FFF71DFB0127C4F8907100208C
:104F0000C4F8A001022004F5C874FFF7B5FA3046D2
:104F1000FFF7B2FA280AFFF7AFFAE8B2FFF7ACFAE8
:104F20002761BDE8F0411020FFF703BB70B5D94CF5
:104F30000546D4F830110029FBD02820FFF7F9FAF4
:104F40000126C4F890610020C4F8A001032004F5F4
:104F5000C874FFF791FA2846FFF78EFAFF20FFF793
:104F600097FF4FF6FF7101EA0025FF20FFF790FF42
:104F7000284485B226611020FFF7DBFA284670BD71
:104F80002DE9F041C34DD5F830010028FBD0FF20BA
:104F9000FFF772FA002440F604073E1F0BE0394683
:104FA0000020FFF79DFF022000F0AEFA2046641CAF
:104FB000E4B2642804D80020FFF7B8FFB042EED175
:104FC000D5F830010028FBD000244FF4184507E045
:104FD0000320FFF785FF2046641CE4B2642805D84F
:104FE0000320FFF7A3FF29468842F1D1BDE8F04135
:104FF000142000F089BA70B5A64D0024C5F8AC4164
:10500000142005F5C87500F07FFA0120286028619A
:10501000E861A5F5C87504E0641CE4B2322000F034
:105020005CFAD5F8300108B9C82CF5D3142000F08B
:105030006BFAC82C01D3012070BD002070BD70B583
:10504000FFF7D9FF42F220010B20FFF749FF4FF491
:1050500002610020FFF744FF8E4CD4F83001002895
:10506000FBD02820FFF765FA0025C4F890515320A3
:1050700004F5C874FFF700FAEF20FFF7FDF96E2082
:10508000FFF7FAF92420FFF7F7F92846FFF7F4F9BC
:105090002846FFF7F1F92846FFF7EEF92846FFF713
:1050A000EBF9642000F030FA0126266025604520E7
:1050B000FFF7E2F97820FFF7DFF96920FFF7DCF965
:1050C0007420FFF7D9F92846FFF7D6F92846FFF7ED
:1050D000D3F92846FFF7D0F92846FFF7CDF9642029
:1050E00000F012FA266025605320FFF7C5F9EF2083
:1050F000FFF7C2F96E20FFF7BFF94420FFF7BCF9B4
:105100002846FFF7B9F92846FFF7B6F92846FFF712
:10511000B3F92846FFF7B0F9642000F0F5F92660EE
:1051200025604520FFF7A8F97820FFF7A5F9692049
:10513000FFF7A2F97420FFF79FF92846FFF79CF9C3
:105140002846FFF799F92846FFF796F92846FFF712
:1051500093F9642000F0D8F9266070BD70B5FFF7B0
:105160004AFF4FF402610020FFF7BAFE494CD4F821
:1051700030010028FBD02820FFF7DBF90025C4F818
:1051800090514D20FFF778F9EA20FFF775F96D206F
:10519000FFF772F95420FFF76FF92846FFF76CF913
:1051A0002846FFF769F92846FFF766F92846FFF712
:1051B00063F90120C4F89001962000F0A5F9BDE83C
:1051C00070400820B2E670B504461020FFF7B1F930
:1051D000304D0021C5F89011204605F5C875FFF740
:1051E0004BF90120286070BD10B501460720FFF77C
:1051F00077FEBDE81040062098E610B5044641F65B
:1052000004610720FFF76CFE224AD2F83031002BF0
:10521000FBD02146BDE81040062061E610B508200D
:10522000FFF784FE04460920FFF780FE44F667730B
:10523000C21A984232D00CDCA0F5824144392DD0FC
:1052400010292BD0B1F53F6F28D0B1F5416F0DD1AA
:1052500024E0A2F5E062E63A20D0A2F56062FF3ACF
:105260001CD002F6E772B2F5005F17D0C0F3C100A0
:10527000032823D00020084901EB4010210B30F80F
:10528000110010BD0010024000080140F00FF0FFB7
:105290000330080000002142B21601086000192105
:1052A000B0FBF1F00A21B0FBF1F201FB1202B0FBFE
:1052B000F1F0052A00D9401C80B2E2E70120DAE7CC
:1052C00041F6056090E741F606608DE770B5754ED2
:1052D0000546D6F8300178B10020C6F890010446A2
:1052E000285DFFF7C9F8641CE4B2202CF8D3012034
:1052F000C6F89001002070BD012070BD70B588B067
:10530000002001466D462954401CC0B22028FAD323
:105310000020FFF70BFE40F00C010020FFF7E0FD3E
:1053200000244FF400666846FFF7D0FF30B9203400
:10533000A4B20020FFF7FAFD000702D5B442F2D371
:1053400016E0B44214D2FFF7BEFFC1B200202954C8
:10535000401CC0B22028FAD3002440F60405684659
:10536000FFF7B4FF08B92034A4B2AC42F7D301E090
:10537000FFF706FE0820FFF7D9FD04460920FFF7D6
:10538000D5FD20440004000C03D0FFF734FEFFF7E6
:10539000F7FD08B070BD10B500210420FFF7A0FD97
:1053A0000021BDE8104004209AE50420BEE52DE967
:1053B000F04789460646002422E036F81470641C43
:1053C000A0B236F81050401C84B2280415D536F827
:1053D0001480641CC5F30E05A4B203E0F8B2414684
:1053E000FFF77EFD6D1EADB20AD3F7E736F8141055
:1053F000641CA4B2F8B2FFF773FD6D1EADB2F5D216
:105400004C45DAD3BDE8F087C0F1FE004FF6FF71DE
:1054100001EA0021084481B20B2061E530B4002488
:105420002BB1082B01D9083B00E0093B5CB24FF6D9
:10543000FF7303EA041402F00F02224403EA02128B
:1054400001F00F01114403EA011100F00F000844BC
:1054500081B230BC022043E510B504460020FFF7BE
:1054600065FDE10702D040F0100001E020F02000CF
:10547000A10702D540F0800101E020F08001BDE8E5
:10548000104000202CE510B5074C2078FFF7BCFF3A
:105490002379E278A1786078FFF7C0FF6079BDE8F2
:1054A0001040D9E7000021422300002010B56FF022
:1054B000040000F058FD204820490068B0FBF1F0DE
:1054C0001F49C0B200EB40020870C2EBC0104FF69B
:1054D000FF7202EAC000488010BD194909784843AC
:1054E0004FF0E021486100238B61086940F0010022
:1054F00008610869C20701D0C003FAD5086920F025
:10550000010008618B6170470D49498848434FF09D
:10551000E021486100238B61086940F001000861C7
:105520000869C20701D0C003FAD5086920F001005C
:1055300008618B61704700000000002000127A00B3
:105540002A000020704740490A885206FCD53E4A8E
:10555000C1B2121D1180704770B5054686B0012199
:1055600044F2040000F0D7FA4FF40070ADF81000D8
:1055700003248DF812401820344E8DF8130004A92E
:10558000304600F0E0F83015ADF8100004208DF83A
:10559000130004A9304600F0D6F825208DF8140039
:1055A0008DF815408DF8164001208DF8170005A8DC
:1055B00000F099FC0020ADF80400ADF80600ADF84D
:1055C0000800ADF80C000C201F4CADF80A00009547
:1055D0006946204600F01EFB012240F2255120467C
:1055E00000F095FB0121204600F087FB06B070BD5E
:1055F00070B5154C40F22551204600F03FFC0028C4
:105600000ED0204600F0D3FB114AC1B2108803042B
:1056100006D444044FF0000306D50A2901D01380B4
:1056200070BD40F400400DE00D2909D0C0F30D0419
:10563000084D401C80B229551080C728EFD870BD96
:1056400040F48040108070BD0038014000080140E7
:105650002E000020480D00200948804709480047D7
:10566000FEE7FEE7FEE7FEE7FEE7FEE7FEE7FEE712
:10567000FEE7FEE704480549054A064B704700006F
:10568000A90A00083101000838A4002038AA002027
:1056900038A6002038A600208F4910B5884206D1D0
:1056A0000121042000F049FA002104203BE08B494D
:1056B000884206D10121082000F03FFA002108208D
:1056C00031E08749884206D10121102000F035FAE7
:1056D0000021102027E08349884206D101212020A3
:1056E00000F02BFA002120201DE07F49884206D1DE
:1056F0000121402000F021FA0021402013E07B49E5
:10570000884206D10121802000F017FA0021802074
:1057100009E0774988420AD184150121204600F02A
:105720000CFA00212046BDE8104000F006BA10BD7A
:1057300010B50121084600F000FA0021BDE8104034
:10574000012000F0FAB9F0B5CC78002204F00F0384
:10575000E40601D58C7823430C784FF00F0C14F03D
:10576000FF0F4FF0010E1BD005680E880EFA02F4F1
:105770002640A64210D196000CFA06F725EA070744
:1057800003FA06F5CE783D43282E02D0482E02D0EB
:1057900002E0446100E00461521C082AE5D3056080
:1057A0000A88FF2A1CD94468002202F108060EFA72
:1057B00006F50E882E40AE420ED196000CFA06F782
:1057C000BC4303FA06F7CE783C43282E00D145614E
:1057D000CE78482E00D10561521C082AE5D34460DA
:1057E000F0BD4FF6FF710180022181700421C1706C
:1057F00070470246002092680A4200D0012070479C
:10580000806880B2704702460020D2680A4200D009
:1058100001207047C06880B27047016170474161E4
:1058200070470AB10161704741617047C1607047BC
:1058300041F480328261816182618169806970474F
:105840002C4B10B51A684FF68074224042EA0010C3
:105850000843186010BD2849C8617047F0B5254C51
:10586000002801DAE36900E06368450D2E0185B286
:10587000C0F30157B540C0F30342032F05D0C60261
:105880000AD503269640B34307E023F070626368AD
:1058900023F07063636002E0AB4343F0706201B1D8
:1058A0002A43002801DAE261F0BD6260F0BD10B564
:1058B0008A0721F003040F49120F21440F238C683B
:1058C00093409C438C608B68904003438B6010BD79
:1058D0000949C1F8DC00704700080140000C014094
:1058E000001001400014014000180140001C01405C
:1058F000002001400000014000002042A54801684E
:1059000041F0010101604168A34A11404160016812
:10591000A24A11400160016821F4802101604168C0
:1059200021F4FE0141604FF41F01816070479949E5
:105930000A6822F480320A600A6822F480220A602F
:10594000B0F5803F07D0B0F5802F03D1086840F450
:10595000A02008607047086840F48030F9E70346EB
:10596000002059098B4A01290AD002290AD0516A1C
:1059700003F01F02012393400B4200D00120704727
:105980001168F5E7116AF3E718B500204FF4A06439
:1059900000903120FFF7E3FF0099491C0091A142DC
:1059A00001D00028F5D03120FFF7D9FF002800D022
:1059B000012018BD774A116821F0F80141EAC000C2
:1059C00010607047764908607047724B5A68084308
:1059D00022F47C1210435860704771490866704782
:1059E0006C4A516821F003010143516070476948D6
:1059F000406800F00C007047664A516821F0F001E1
:105A0000014351607047634A516821F4E0610143EA
:105A1000516070475F4A516821F4605141EAC0000B
:105A2000506070475B4A0029517A01D0014300E081
:105A30008143517270475A49C1F8D8007047554A9E
:105A4000516821F44041014351607047514900229F
:105A500081F8202081F82020012802D0042802D1DA
:105A6000052081F8200070474E4908607047494979
:105A70000A6A02430A6270474A494439086070471B
:105A800030B5444A5168484B11F00C0103D0042949
:105A900001D0082901D0036012E05168536801F475
:105AA00070114FF0020413F4803F04EB914102D0D7
:105AB00053689B0301D53D4B00E03B4B59430160CC
:105AC00051680F2303EA1111394B5C5C0168E14016
:105AD00041605468072505EA14241C5D21FA04F48A
